{
  "_format": "hh-sol-artifact-1",
  "contractName": "DeFiApp",
  "sourceName": "contracts/DeFiApp.sol",
  "abi": [
    {
      "inputs": [],
      "stateMutability": "nonpayable",
      "type": "constructor"
    },
    {
      "anonymous": false,
      "inputs": [
        {
          "indexed": true,
          "internalType": "address",
          "name": "owner",
          "type": "address"
        },
        {
          "indexed": true,
          "internalType": "address",
          "name": "spender",
          "type": "address"
        },
        {
          "indexed": false,
          "internalType": "uint256",
          "name": "value",
          "type": "uint256"
        }
      ],
      "name": "Approval",
      "type": "event"
    },
    {
      "anonymous": false,
      "inputs": [
        {
          "indexed": true,
          "internalType": "address",
          "name": "previousOwner",
          "type": "address"
        },
        {
          "indexed": true,
          "internalType": "address",
          "name": "newOwner",
          "type": "address"
        }
      ],
      "name": "OwnershipTransferred",
      "type": "event"
    },
    {
      "anonymous": false,
      "inputs": [
        {
          "indexed": false,
          "internalType": "address",
          "name": "account",
          "type": "address"
        }
      ],
      "name": "Paused",
      "type": "event"
    },
    {
      "anonymous": false,
      "inputs": [
        {
          "indexed": true,
          "internalType": "address",
          "name": "from",
          "type": "address"
        },
        {
          "indexed": true,
          "internalType": "address",
          "name": "to",
          "type": "address"
        },
        {
          "indexed": false,
          "internalType": "uint256",
          "name": "value",
          "type": "uint256"
        }
      ],
      "name": "Transfer",
      "type": "event"
    },
    {
      "anonymous": false,
      "inputs": [
        {
          "indexed": false,
          "internalType": "address",
          "name": "account",
          "type": "address"
        }
      ],
      "name": "Unpaused",
      "type": "event"
    },
    {
      "anonymous": false,
      "inputs": [
        {
          "indexed": false,
          "internalType": "address",
          "name": "from",
          "type": "address"
        },
        {
          "indexed": false,
          "internalType": "uint256",
          "name": "amount",
          "type": "uint256"
        },
        {
          "indexed": false,
          "internalType": "uint256",
          "name": "depositTimestamp",
          "type": "uint256"
        }
      ],
      "name": "tokensStaked",
      "type": "event"
    },
    {
      "anonymous": false,
      "inputs": [
        {
          "indexed": false,
          "internalType": "address",
          "name": "to",
          "type": "address"
        },
        {
          "indexed": false,
          "internalType": "uint256",
          "name": "amount",
          "type": "uint256"
        },
        {
          "indexed": false,
          "internalType": "uint256",
          "name": "depositTimestamp",
          "type": "uint256"
        }
      ],
      "name": "tokensUnstaked",
      "type": "event"
    },
    {
      "inputs": [
        {
          "internalType": "uint256",
          "name": "",
          "type": "uint256"
        }
      ],
      "name": "addresses",
      "outputs": [
        {
          "internalType": "address",
          "name": "",
          "type": "address"
        }
      ],
      "stateMutability": "view",
      "type": "function"
    },
    {
      "inputs": [
        {
          "internalType": "address",
          "name": "owner",
          "type": "address"
        },
        {
          "internalType": "address",
          "name": "spender",
          "type": "address"
        }
      ],
      "name": "allowance",
      "outputs": [
        {
          "internalType": "uint256",
          "name": "",
          "type": "uint256"
        }
      ],
      "stateMutability": "view",
      "type": "function"
    },
    {
      "inputs": [
        {
          "internalType": "address",
          "name": "spender",
          "type": "address"
        },
        {
          "internalType": "uint256",
          "name": "amount",
          "type": "uint256"
        }
      ],
      "name": "approve",
      "outputs": [
        {
          "internalType": "bool",
          "name": "",
          "type": "bool"
        }
      ],
      "stateMutability": "nonpayable",
      "type": "function"
    },
    {
      "inputs": [
        {
          "internalType": "address",
          "name": "account",
          "type": "address"
        }
      ],
      "name": "balanceOf",
      "outputs": [
        {
          "internalType": "uint256",
          "name": "",
          "type": "uint256"
        }
      ],
      "stateMutability": "view",
      "type": "function"
    },
    {
      "inputs": [
        {
          "internalType": "address",
          "name": "",
          "type": "address"
        },
        {
          "internalType": "uint256",
          "name": "",
          "type": "uint256"
        }
      ],
      "name": "balances",
      "outputs": [
        {
          "internalType": "address",
          "name": "ownerAddress",
          "type": "address"
        },
        {
          "internalType": "uint256",
          "name": "depositTimestamp",
          "type": "uint256"
        },
        {
          "internalType": "uint256",
          "name": "amount",
          "type": "uint256"
        }
      ],
      "stateMutability": "view",
      "type": "function"
    },
    {
      "inputs": [
        {
          "internalType": "uint256",
          "name": "amount",
          "type": "uint256"
        }
      ],
      "name": "burn",
      "outputs": [],
      "stateMutability": "nonpayable",
      "type": "function"
    },
    {
      "inputs": [
        {
          "internalType": "address",
          "name": "account",
          "type": "address"
        },
        {
          "internalType": "uint256",
          "name": "amount",
          "type": "uint256"
        }
      ],
      "name": "burnFrom",
      "outputs": [],
      "stateMutability": "nonpayable",
      "type": "function"
    },
    {
      "inputs": [],
      "name": "decimals",
      "outputs": [
        {
          "internalType": "uint8",
          "name": "",
          "type": "uint8"
        }
      ],
      "stateMutability": "view",
      "type": "function"
    },
    {
      "inputs": [
        {
          "internalType": "address",
          "name": "spender",
          "type": "address"
        },
        {
          "internalType": "uint256",
          "name": "subtractedValue",
          "type": "uint256"
        }
      ],
      "name": "decreaseAllowance",
      "outputs": [
        {
          "internalType": "bool",
          "name": "",
          "type": "bool"
        }
      ],
      "stateMutability": "nonpayable",
      "type": "function"
    },
    {
      "inputs": [],
      "name": "getAddresses",
      "outputs": [
        {
          "internalType": "address[]",
          "name": "",
          "type": "address[]"
        }
      ],
      "stateMutability": "view",
      "type": "function"
    },
    {
      "inputs": [],
      "name": "getAllStakedUserBalances",
      "outputs": [
        {
          "components": [
            {
              "internalType": "address",
              "name": "ownerAddress",
              "type": "address"
            },
            {
              "internalType": "uint256",
              "name": "depositTimestamp",
              "type": "uint256"
            },
            {
              "internalType": "uint256",
              "name": "amount",
              "type": "uint256"
            }
          ],
          "internalType": "struct DeFiApp.StakedValue[]",
          "name": "",
          "type": "tuple[]"
        }
      ],
      "stateMutability": "view",
      "type": "function"
    },
    {
      "inputs": [],
      "name": "getNumberOfStake",
      "outputs": [
        {
          "internalType": "uint256",
          "name": "",
          "type": "uint256"
        }
      ],
      "stateMutability": "view",
      "type": "function"
    },
    {
      "inputs": [],
      "name": "getSomeDrot",
      "outputs": [],
      "stateMutability": "nonpayable",
      "type": "function"
    },
    {
      "inputs": [],
      "name": "getStakedUserBalances",
      "outputs": [
        {
          "components": [
            {
              "internalType": "address",
              "name": "ownerAddress",
              "type": "address"
            },
            {
              "internalType": "uint256",
              "name": "depositTimestamp",
              "type": "uint256"
            },
            {
              "internalType": "uint256",
              "name": "amount",
              "type": "uint256"
            }
          ],
          "internalType": "struct DeFiApp.StakedValue[]",
          "name": "",
          "type": "tuple[]"
        }
      ],
      "stateMutability": "view",
      "type": "function"
    },
    {
      "inputs": [],
      "name": "getTotalStakedValue",
      "outputs": [
        {
          "internalType": "uint256",
          "name": "",
          "type": "uint256"
        }
      ],
      "stateMutability": "view",
      "type": "function"
    },
    {
      "inputs": [
        {
          "internalType": "address",
          "name": "spender",
          "type": "address"
        },
        {
          "internalType": "uint256",
          "name": "addedValue",
          "type": "uint256"
        }
      ],
      "name": "increaseAllowance",
      "outputs": [
        {
          "internalType": "bool",
          "name": "",
          "type": "bool"
        }
      ],
      "stateMutability": "nonpayable",
      "type": "function"
    },
    {
      "inputs": [
        {
          "internalType": "address",
          "name": "to",
          "type": "address"
        },
        {
          "internalType": "uint256",
          "name": "amount",
          "type": "uint256"
        }
      ],
      "name": "mint",
      "outputs": [],
      "stateMutability": "nonpayable",
      "type": "function"
    },
    {
      "inputs": [],
      "name": "name",
      "outputs": [
        {
          "internalType": "string",
          "name": "",
          "type": "string"
        }
      ],
      "stateMutability": "view",
      "type": "function"
    },
    {
      "inputs": [],
      "name": "numberOfStakes",
      "outputs": [
        {
          "internalType": "uint256",
          "name": "",
          "type": "uint256"
        }
      ],
      "stateMutability": "view",
      "type": "function"
    },
    {
      "inputs": [],
      "name": "owner",
      "outputs": [
        {
          "internalType": "address",
          "name": "",
          "type": "address"
        }
      ],
      "stateMutability": "view",
      "type": "function"
    },
    {
      "inputs": [],
      "name": "pause",
      "outputs": [],
      "stateMutability": "nonpayable",
      "type": "function"
    },
    {
      "inputs": [],
      "name": "paused",
      "outputs": [
        {
          "internalType": "bool",
          "name": "",
          "type": "bool"
        }
      ],
      "stateMutability": "view",
      "type": "function"
    },
    {
      "inputs": [
        {
          "internalType": "contract IERC20",
          "name": "token",
          "type": "address"
        },
        {
          "internalType": "uint256",
          "name": "id",
          "type": "uint256"
        }
      ],
      "name": "redeem",
      "outputs": [],
      "stateMutability": "nonpayable",
      "type": "function"
    },
    {
      "inputs": [],
      "name": "renounceOwnership",
      "outputs": [],
      "stateMutability": "nonpayable",
      "type": "function"
    },
    {
      "inputs": [],
      "name": "rewardRatePerMinute",
      "outputs": [
        {
          "internalType": "uint256",
          "name": "",
          "type": "uint256"
        }
      ],
      "stateMutability": "view",
      "type": "function"
    },
    {
      "inputs": [
        {
          "internalType": "address",
          "name": "tokenAddress",
          "type": "address"
        },
        {
          "internalType": "uint256",
          "name": "amount",
          "type": "uint256"
        }
      ],
      "name": "stake",
      "outputs": [],
      "stateMutability": "payable",
      "type": "function"
    },
    {
      "inputs": [],
      "name": "symbol",
      "outputs": [
        {
          "internalType": "string",
          "name": "",
          "type": "string"
        }
      ],
      "stateMutability": "view",
      "type": "function"
    },
    {
      "inputs": [],
      "name": "totalSupply",
      "outputs": [
        {
          "internalType": "uint256",
          "name": "",
          "type": "uint256"
        }
      ],
      "stateMutability": "view",
      "type": "function"
    },
    {
      "inputs": [
        {
          "internalType": "address",
          "name": "to",
          "type": "address"
        },
        {
          "internalType": "uint256",
          "name": "amount",
          "type": "uint256"
        }
      ],
      "name": "transfer",
      "outputs": [
        {
          "internalType": "bool",
          "name": "",
          "type": "bool"
        }
      ],
      "stateMutability": "nonpayable",
      "type": "function"
    },
    {
      "inputs": [
        {
          "internalType": "address",
          "name": "from",
          "type": "address"
        },
        {
          "internalType": "address",
          "name": "to",
          "type": "address"
        },
        {
          "internalType": "uint256",
          "name": "amount",
          "type": "uint256"
        }
      ],
      "name": "transferFrom",
      "outputs": [
        {
          "internalType": "bool",
          "name": "",
          "type": "bool"
        }
      ],
      "stateMutability": "nonpayable",
      "type": "function"
    },
    {
      "inputs": [
        {
          "internalType": "address",
          "name": "newOwner",
          "type": "address"
        }
      ],
      "name": "transferOwnership",
      "outputs": [],
      "stateMutability": "nonpayable",
      "type": "function"
    },
    {
      "inputs": [],
      "name": "unpause",
      "outputs": [],
      "stateMutability": "nonpayable",
      "type": "function"
    }
  ],
  "bytecode": "0x6080604052600060085560006009553480156200001b57600080fd5b506040518060400160405280600781526020017f44654669417070000000000000000000000000000000000000000000000000008152506040518060400160405280600481526020017f44524f54000000000000000000000000000000000000000000000000000000008152508160039080519060200190620000a0929190620003f1565b508060049080519060200190620000b9929190620003f1565b5050506000600560006101000a81548160ff021916908315150217905550620000f7620000eb6200011960201b60201c565b6200012160201b60201c565b620001133069152d02c7e14af6800000620001e760201b60201c565b620006bf565b600033905090565b6000600560019054906101000a900473ffffffffffffffffffffffffffffffffffffffff16905081600560016101000a81548173ffffffffffffffffffffffffffffffffffffffff021916908373ffffffffffffffffffffffffffffffffffffffff1602179055508173ffffffffffffffffffffffffffffffffffffffff168173ffffffffffffffffffffffffffffffffffffffff167f8be0079c531659141344cd1fd0a4f28419497f9722a3daafe3b4186f6b6457e060405160405180910390a35050565b600073ffffffffffffffffffffffffffffffffffffffff168273ffffffffffffffffffffffffffffffffffffffff1614156200025a576040517f08c379a0000000000000000000000000000000000000000000000000000000008152600401620002519062000522565b60405180910390fd5b6200026e600083836200036060201b60201c565b806002600082825462000282919062000572565b92505081905550806000808473ffffffffffffffffffffffffffffffffffffffff1673ffffffffffffffffffffffffffffffffffffffff1681526020019081526020016000206000828254620002d9919062000572565b925050819055508173ffffffffffffffffffffffffffffffffffffffff16600073ffffffffffffffffffffffffffffffffffffffff167fddf252ad1be2c89b69c2b068fc378daa952ba7f163c4a11628f55a4df523b3ef8360405162000340919062000544565b60405180910390a36200035c60008383620003d060201b60201c565b5050565b62000370620003d560201b60201c565b15620003b3576040517f08c379a0000000000000000000000000000000000000000000000000000000008152600401620003aa9062000500565b60405180910390fd5b620003cb838383620003ec60201b62001f681760201c565b505050565b505050565b6000600560009054906101000a900460ff16905090565b505050565b828054620003ff90620005d9565b90600052602060002090601f0160209004810192826200042357600085556200046f565b82601f106200043e57805160ff19168380011785556200046f565b828001600101855582156200046f579182015b828111156200046e57825182559160200191906001019062000451565b5b5090506200047e919062000482565b5090565b5b808211156200049d57600081600090555060010162000483565b5090565b6000620004b060108362000561565b9150620004bd826200066d565b602082019050919050565b6000620004d7601f8362000561565b9150620004e48262000696565b602082019050919050565b620004fa81620005cf565b82525050565b600060208201905081810360008301526200051b81620004a1565b9050919050565b600060208201905081810360008301526200053d81620004c8565b9050919050565b60006020820190506200055b6000830184620004ef565b92915050565b600082825260208201905092915050565b60006200057f82620005cf565b91506200058c83620005cf565b9250827fffffffffffffffffffffffffffffffffffffffffffffffffffffffffffffffff03821115620005c457620005c36200060f565b5b828201905092915050565b6000819050919050565b60006002820490506001821680620005f257607f821691505b602082108114156200060957620006086200063e565b5b50919050565b7f4e487b7100000000000000000000000000000000000000000000000000000000600052601160045260246000fd5b7f4e487b7100000000000000000000000000000000000000000000000000000000600052602260045260246000fd5b7f5061757361626c653a2070617573656400000000000000000000000000000000600082015250565b7f45524332303a206d696e7420746f20746865207a65726f206164647265737300600082015250565b61464980620006cf6000396000f3fe6080604052600436106101e35760003560e01c8063715018a611610102578063a457c2d711610095578063cbf1304d11610064578063cbf1304d146106a1578063dd62ed3e146106e0578063edf26d9b1461071d578063f2fde38b1461075a576101e3565b8063a457c2d7146105e0578063a9059cbb1461061d578063adc9772e1461065a578063c8f646b414610676576101e3565b8063942d53e2116100d1578063942d53e21461053457806395d89b411461055f578063a2a6f6571461058a578063a39fac12146105b5576101e3565b8063715018a6146104b257806379cc6790146104c95780638456cb59146104f25780638da5cb5b14610509576101e3565b80633dfc470a1161017a5780634c583698116101495780634c583698146103f45780635c975abb1461041f57806367102ca81461044a57806370a0823114610475576101e3565b80633dfc470a146103745780633f4ba83a1461038b57806340c10f19146103a257806342966c68146103cb576101e3565b806323b872dd116101b657806323b872dd146102a4578063313ce567146102e1578063395093511461030c5780633999c48814610349576101e3565b806306fdde03146101e8578063095ea7b31461021357806318160ddd146102505780631e9a69501461027b575b600080fd5b3480156101f457600080fd5b506101fd610783565b60405161020a9190613a94565b60405180910390f35b34801561021f57600080fd5b5061023a60048036038101906102359190613444565b610815565b6040516102479190613a79565b60405180910390f35b34801561025c57600080fd5b50610265610838565b6040516102729190613cd6565b60405180910390f35b34801561028757600080fd5b506102a2600480360381019061029d91906134a9565b610842565b005b3480156102b057600080fd5b506102cb60048036038101906102c691906133f5565b610cd9565b6040516102d89190613a79565b60405180910390f35b3480156102ed57600080fd5b506102f6610d08565b6040516103039190613cf1565b60405180910390f35b34801561031857600080fd5b50610333600480360381019061032e9190613444565b610d11565b6040516103409190613a79565b60405180910390f35b34801561035557600080fd5b5061035e610d48565b60405161036b9190613cd6565b60405180910390f35b34801561038057600080fd5b50610389610d52565b005b34801561039757600080fd5b506103a0610deb565b005b3480156103ae57600080fd5b506103c960048036038101906103c49190613444565b610e71565b005b3480156103d757600080fd5b506103f260048036038101906103ed91906134e5565b610efb565b005b34801561040057600080fd5b50610409610f0f565b6040516104169190613cd6565b60405180910390f35b34801561042b57600080fd5b50610434610f19565b6040516104419190613a79565b60405180910390f35b34801561045657600080fd5b5061045f610f30565b60405161046c9190613a57565b60405180910390f35b34801561048157600080fd5b5061049c60048036038101906104979190613390565b6114bb565b6040516104a99190613cd6565b60405180910390f35b3480156104be57600080fd5b506104c7611503565b005b3480156104d557600080fd5b506104f060048036038101906104eb9190613444565b61158b565b005b3480156104fe57600080fd5b506105076115ab565b005b34801561051557600080fd5b5061051e611631565b60405161052b919061395a565b60405180910390f35b34801561054057600080fd5b5061054961165b565b6040516105569190613a57565b60405180910390f35b34801561056b57600080fd5b50610574611825565b6040516105819190613a94565b60405180910390f35b34801561059657600080fd5b5061059f6118b7565b6040516105ac9190613cd6565b60405180910390f35b3480156105c157600080fd5b506105ca6118bd565b6040516105d79190613a35565b60405180910390f35b3480156105ec57600080fd5b5061060760048036038101906106029190613444565b61194b565b6040516106149190613a79565b60405180910390f35b34801561062957600080fd5b50610644600480360381019061063f9190613444565b6119c2565b6040516106519190613a79565b60405180910390f35b610674600480360381019061066f9190613444565b6119e5565b005b34801561068257600080fd5b5061068b611d3e565b6040516106989190613cd6565b60405180910390f35b3480156106ad57600080fd5b506106c860048036038101906106c39190613444565b611d43565b6040516106d7939291906139fe565b60405180910390f35b3480156106ec57600080fd5b50610707600480360381019061070291906133b9565b611daa565b6040516107149190613cd6565b60405180910390f35b34801561072957600080fd5b50610744600480360381019061073f91906134e5565b611e31565b604051610751919061395a565b60405180910390f35b34801561076657600080fd5b50610781600480360381019061077c9190613390565b611e70565b005b60606003805461079290613f85565b80601f01602080910402602001604051908101604052809291908181526020018280546107be90613f85565b801561080b5780601f106107e05761010080835404028352916020019161080b565b820191906000526020600020905b8154815290600101906020018083116107ee57829003601f168201915b5050505050905090565b600080610820611f6d565b905061082d818585611f75565b600191505092915050565b6000600254905090565b3073ffffffffffffffffffffffffffffffffffffffff168273ffffffffffffffffffffffffffffffffffffffff16146108b0576040517f08c379a00000000000000000000000000000000000000000000000000000000081526004016108a790613b16565b60405180910390fd5b60006001603c600660003373ffffffffffffffffffffffffffffffffffffffff1673ffffffffffffffffffffffffffffffffffffffff168152602001908152602001600020848154811061092d577f4e487b7100000000000000000000000000000000000000000000000000000000600052603260045260246000fd5b9060005260206000209060030201600101544261094a9190613e7b565b6109549190613df0565b61095e9190613e21565b9050600081600660003373ffffffffffffffffffffffffffffffffffffffff1673ffffffffffffffffffffffffffffffffffffffff16815260200190815260200160002084815481106109da577f4e487b7100000000000000000000000000000000000000000000000000000000600052603260045260246000fd5b9060005260206000209060030201600201546109f69190613d9a565b9050610a1530670de0b6b3a764000084610a109190613e21565b612140565b8373ffffffffffffffffffffffffffffffffffffffff1663a9059cbb33670de0b6b3a764000084610a469190613e21565b6040518363ffffffff1660e01b8152600401610a639291906139d5565b602060405180830381600087803b158015610a7d57600080fd5b505af1158015610a91573d6000803e3d6000fd5b505050506040513d601f19601f82011682018060405250810190610ab59190613480565b50600660003373ffffffffffffffffffffffffffffffffffffffff1673ffffffffffffffffffffffffffffffffffffffff1681526020019081526020016000208381548110610b2d577f4e487b7100000000000000000000000000000000000000000000000000000000600052603260045260246000fd5b906000526020600020906003020160020154600954610b4c9190613e7b565b60098190555060086000815480929190610b6590613f5b565b91905055507f41c34fe7f8ca06816a3b8103d01cb63b8d8ba1c894340cfd29ad3ae1f6767c3e33670de0b6b3a764000083610ba09190613e21565b600660003373ffffffffffffffffffffffffffffffffffffffff1673ffffffffffffffffffffffffffffffffffffffff1681526020019081526020016000208681548110610c17577f4e487b7100000000000000000000000000000000000000000000000000000000600052603260045260246000fd5b906000526020600020906003020160010154604051610c38939291906139fe565b60405180910390a1610cd233600660003373ffffffffffffffffffffffffffffffffffffffff1673ffffffffffffffffffffffffffffffffffffffff1681526020019081526020016000208581548110610cbb577f4e487b7100000000000000000000000000000000000000000000000000000000600052603260045260246000fd5b9060005260206000209060030201600101546122a0565b5050505050565b600080610ce4611f6d565b9050610cf1858285612a75565b610cfc858585612b01565b60019150509392505050565b60006012905090565b600080610d1c611f6d565b9050610d3d818585610d2e8589611daa565b610d389190613d9a565b611f75565b600191505092915050565b6000600954905090565b3073ffffffffffffffffffffffffffffffffffffffff1663a9059cbb3368056bc75e2d631000006040518363ffffffff1660e01b8152600401610d969291906139ac565b602060405180830381600087803b158015610db057600080fd5b505af1158015610dc4573d6000803e3d6000fd5b505050506040513d601f19601f82011682018060405250810190610de89190613480565b50565b610df3611f6d565b73ffffffffffffffffffffffffffffffffffffffff16610e11611631565b73ffffffffffffffffffffffffffffffffffffffff1614610e67576040517f08c379a0000000000000000000000000000000000000000000000000000000008152600401610e5e90613bf6565b60405180910390fd5b610e6f612d82565b565b610e79611f6d565b73ffffffffffffffffffffffffffffffffffffffff16610e97611631565b73ffffffffffffffffffffffffffffffffffffffff1614610eed576040517f08c379a0000000000000000000000000000000000000000000000000000000008152600401610ee490613bf6565b60405180910390fd5b610ef78282612140565b5050565b610f0c610f06611f6d565b82612e24565b50565b6000600854905090565b6000600560009054906101000a900460ff16905090565b6060600060085467ffffffffffffffff811115610f76577f4e487b7100000000000000000000000000000000000000000000000000000000600052604160045260246000fd5b604051908082528060200260200182016040528015610faf57816020015b610f9c6132f0565b815260200190600190039081610f945790505b5090506000805b6007805490508110156114b25760006006600060078481548110611003577f4e487b7100000000000000000000000000000000000000000000000000000000600052603260045260246000fd5b9060005260206000200160009054906101000a900473ffffffffffffffffffffffffffffffffffffffff1673ffffffffffffffffffffffffffffffffffffffff1673ffffffffffffffffffffffffffffffffffffffff16815260200190815260200160002080549050111561149f5760005b60066000600784815481106110b3577f4e487b7100000000000000000000000000000000000000000000000000000000600052603260045260246000fd5b9060005260206000200160009054906101000a900473ffffffffffffffffffffffffffffffffffffffff1673ffffffffffffffffffffffffffffffffffffffff1673ffffffffffffffffffffffffffffffffffffffff1681526020019081526020016000208054905081101561149d576040518060600160405280600660006007868154811061116c577f4e487b7100000000000000000000000000000000000000000000000000000000600052603260045260246000fd5b9060005260206000200160009054906101000a900473ffffffffffffffffffffffffffffffffffffffff1673ffffffffffffffffffffffffffffffffffffffff1673ffffffffffffffffffffffffffffffffffffffff1681526020019081526020016000208381548110611209577f4e487b7100000000000000000000000000000000000000000000000000000000600052603260045260246000fd5b906000526020600020906003020160000160009054906101000a900473ffffffffffffffffffffffffffffffffffffffff1673ffffffffffffffffffffffffffffffffffffffff1681526020016006600060078681548110611294577f4e487b7100000000000000000000000000000000000000000000000000000000600052603260045260246000fd5b9060005260206000200160009054906101000a900473ffffffffffffffffffffffffffffffffffffffff1673ffffffffffffffffffffffffffffffffffffffff1673ffffffffffffffffffffffffffffffffffffffff1681526020019081526020016000208381548110611331577f4e487b7100000000000000000000000000000000000000000000000000000000600052603260045260246000fd5b90600052602060002090600302016001015481526020016006600060078681548110611386577f4e487b7100000000000000000000000000000000000000000000000000000000600052603260045260246000fd5b9060005260206000200160009054906101000a900473ffffffffffffffffffffffffffffffffffffffff1673ffffffffffffffffffffffffffffffffffffffff1673ffffffffffffffffffffffffffffffffffffffff1681526020019081526020016000208381548110611423577f4e487b7100000000000000000000000000000000000000000000000000000000600052603260045260246000fd5b906000526020600020906003020160020154815250848481518110611471577f4e487b7100000000000000000000000000000000000000000000000000000000600052603260045260246000fd5b6020026020010181905250828061148790613fb7565b935050808061149590613fb7565b915050611075565b505b80806114aa90613fb7565b915050610fb6565b50819250505090565b60008060008373ffffffffffffffffffffffffffffffffffffffff1673ffffffffffffffffffffffffffffffffffffffff168152602001908152602001600020549050919050565b61150b611f6d565b73ffffffffffffffffffffffffffffffffffffffff16611529611631565b73ffffffffffffffffffffffffffffffffffffffff161461157f576040517f08c379a000000000000000000000000000000000000000000000000000000000815260040161157690613bf6565b60405180910390fd5b6115896000612ffb565b565b61159d82611597611f6d565b83612a75565b6115a78282612e24565b5050565b6115b3611f6d565b73ffffffffffffffffffffffffffffffffffffffff166115d1611631565b73ffffffffffffffffffffffffffffffffffffffff1614611627576040517f08c379a000000000000000000000000000000000000000000000000000000000815260040161161e90613bf6565b60405180910390fd5b61162f6130c1565b565b6000600560019054906101000a900473ffffffffffffffffffffffffffffffffffffffff16905090565b60606000600660003373ffffffffffffffffffffffffffffffffffffffff1673ffffffffffffffffffffffffffffffffffffffff1681526020019081526020016000208054905067ffffffffffffffff8111156116e1577f4e487b7100000000000000000000000000000000000000000000000000000000600052604160045260246000fd5b60405190808252806020026020018201604052801561171a57816020015b6117076132f0565b8152602001906001900390816116ff5790505b509050600660003373ffffffffffffffffffffffffffffffffffffffff1673ffffffffffffffffffffffffffffffffffffffff168152602001908152602001600020805480602002602001604051908101604052809291908181526020016000905b8282101561181857838290600052602060002090600302016040518060600160405290816000820160009054906101000a900473ffffffffffffffffffffffffffffffffffffffff1673ffffffffffffffffffffffffffffffffffffffff1673ffffffffffffffffffffffffffffffffffffffff168152602001600182015481526020016002820154815250508152602001906001019061177c565b5050505090508091505090565b60606004805461183490613f85565b80601f016020809104026020016040519081016040528092919081815260200182805461186090613f85565b80156118ad5780601f10611882576101008083540402835291602001916118ad565b820191906000526020600020905b81548152906001019060200180831161189057829003601f168201915b5050505050905090565b60085481565b6060600780548060200260200160405190810160405280929190818152602001828054801561194157602002820191906000526020600020905b8160009054906101000a900473ffffffffffffffffffffffffffffffffffffffff1673ffffffffffffffffffffffffffffffffffffffff16815260200190600101908083116118f7575b5050505050905090565b600080611956611f6d565b905060006119648286611daa565b9050838110156119a9576040517f08c379a00000000000000000000000000000000000000000000000000000000081526004016119a090613c96565b60405180910390fd5b6119b68286868403611f75565b60019250505092915050565b6000806119cd611f6d565b90506119da818585612b01565b600191505092915050565b3073ffffffffffffffffffffffffffffffffffffffff168273ffffffffffffffffffffffffffffffffffffffff1614611a53576040517f08c379a0000000000000000000000000000000000000000000000000000000008152600401611a4a90613b76565b60405180910390fd5b8173ffffffffffffffffffffffffffffffffffffffff166370a08231336040518263ffffffff1660e01b8152600401611a8c919061395a565b60206040518083038186803b158015611aa457600080fd5b505afa158015611ab8573d6000803e3d6000fd5b505050506040513d601f19601f82011682018060405250810190611adc919061350e565b811115611b1e576040517f08c379a0000000000000000000000000000000000000000000000000000000008152600401611b1590613c36565b60405180910390fd5b8173ffffffffffffffffffffffffffffffffffffffff166323b872dd3330670de0b6b3a764000085611b509190613e21565b6040518463ffffffff1660e01b8152600401611b6e93929190613975565b602060405180830381600087803b158015611b8857600080fd5b505af1158015611b9c573d6000803e3d6000fd5b505050506040513d601f19601f82011682018060405250810190611bc09190613480565b50611bca33613164565b600660003373ffffffffffffffffffffffffffffffffffffffff1673ffffffffffffffffffffffffffffffffffffffff16815260200190815260200160002060405180606001604052803373ffffffffffffffffffffffffffffffffffffffff16815260200142815260200183815250908060018154018082558091505060019003906000526020600020906003020160009091909190915060008201518160000160006101000a81548173ffffffffffffffffffffffffffffffffffffffff021916908373ffffffffffffffffffffffffffffffffffffffff1602179055506020820151816001015560408201518160020155505060086000815480929190611cd390613fb7565b919050555080600954611ce69190613d9a565b6009819055507f96c68044657fcb3bea5ad282f026bd0361f647d377dfe1615a77e35dd87280a133670de0b6b3a764000083611d229190613e21565b42604051611d32939291906139fe565b60405180910390a15050565b600181565b60066020528160005260406000208181548110611d5f57600080fd5b9060005260206000209060030201600091509150508060000160009054906101000a900473ffffffffffffffffffffffffffffffffffffffff16908060010154908060020154905083565b6000600160008473ffffffffffffffffffffffffffffffffffffffff1673ffffffffffffffffffffffffffffffffffffffff16815260200190815260200160002060008373ffffffffffffffffffffffffffffffffffffffff1673ffffffffffffffffffffffffffffffffffffffff16815260200190815260200160002054905092915050565b60078181548110611e4157600080fd5b906000526020600020016000915054906101000a900473ffffffffffffffffffffffffffffffffffffffff1681565b611e78611f6d565b73ffffffffffffffffffffffffffffffffffffffff16611e96611631565b73ffffffffffffffffffffffffffffffffffffffff1614611eec576040517f08c379a0000000000000000000000000000000000000000000000000000000008152600401611ee390613bf6565b60405180910390fd5b600073ffffffffffffffffffffffffffffffffffffffff168173ffffffffffffffffffffffffffffffffffffffff161415611f5c576040517f08c379a0000000000000000000000000000000000000000000000000000000008152600401611f5390613b36565b60405180910390fd5b611f6581612ffb565b50565b505050565b600033905090565b600073ffffffffffffffffffffffffffffffffffffffff168373ffffffffffffffffffffffffffffffffffffffff161415611fe5576040517f08c379a0000000000000000000000000000000000000000000000000000000008152600401611fdc90613c76565b60405180910390fd5b600073ffffffffffffffffffffffffffffffffffffffff168273ffffffffffffffffffffffffffffffffffffffff161415612055576040517f08c379a000000000000000000000000000000000000000000000000000000000815260040161204c90613b56565b60405180910390fd5b80600160008573ffffffffffffffffffffffffffffffffffffffff1673ffffffffffffffffffffffffffffffffffffffff16815260200190815260200160002060008473ffffffffffffffffffffffffffffffffffffffff1673ffffffffffffffffffffffffffffffffffffffff168152602001908152602001600020819055508173ffffffffffffffffffffffffffffffffffffffff168373ffffffffffffffffffffffffffffffffffffffff167f8c5be1e5ebec7d5bd14f71427d1e84f3dd0314c0f7b2291e5b200ac8c7c3b925836040516121339190613cd6565b60405180910390a3505050565b600073ffffffffffffffffffffffffffffffffffffffff168273ffffffffffffffffffffffffffffffffffffffff1614156121b0576040517f08c379a00000000000000000000000000000000000000000000000000000000081526004016121a790613cb6565b60405180910390fd5b6121bc60008383613293565b80600260008282546121ce9190613d9a565b92505081905550806000808473ffffffffffffffffffffffffffffffffffffffff1673ffffffffffffffffffffffffffffffffffffffff16815260200190815260200160002060008282546122239190613d9a565b925050819055508173ffffffffffffffffffffffffffffffffffffffff16600073ffffffffffffffffffffffffffffffffffffffff167fddf252ad1be2c89b69c2b068fc378daa952ba7f163c4a11628f55a4df523b3ef836040516122889190613cd6565b60405180910390a361229c600083836132eb565b5050565b60606000600660008573ffffffffffffffffffffffffffffffffffffffff1673ffffffffffffffffffffffffffffffffffffffff1681526020019081526020016000208054905014156123f357600660008473ffffffffffffffffffffffffffffffffffffffff1673ffffffffffffffffffffffffffffffffffffffff168152602001908152602001600020805480602002602001604051908101604052809291908181526020016000905b828210156123e857838290600052602060002090600302016040518060600160405290816000820160009054906101000a900473ffffffffffffffffffffffffffffffffffffffff1673ffffffffffffffffffffffffffffffffffffffff1673ffffffffffffffffffffffffffffffffffffffff168152602001600182015481526020016002820154815250508152602001906001019061234c565b505050509050612a6f565b6001600660008573ffffffffffffffffffffffffffffffffffffffff1673ffffffffffffffffffffffffffffffffffffffff16815260200190815260200160002080549050141561260957600660008473ffffffffffffffffffffffffffffffffffffffff1673ffffffffffffffffffffffffffffffffffffffff1681526020019081526020016000208054806124b3577f4e487b7100000000000000000000000000000000000000000000000000000000600052603160045260246000fd5b6001900381819060005260206000209060030201600080820160006101000a81549073ffffffffffffffffffffffffffffffffffffffff02191690556001820160009055600282016000905550509055600660008473ffffffffffffffffffffffffffffffffffffffff1673ffffffffffffffffffffffffffffffffffffffff168152602001908152602001600020805480602002602001604051908101604052809291908181526020016000905b828210156125fe57838290600052602060002090600302016040518060600160405290816000820160009054906101000a900473ffffffffffffffffffffffffffffffffffffffff1673ffffffffffffffffffffffffffffffffffffffff1673ffffffffffffffffffffffffffffffffffffffff1681526020016001820154815260200160028201548152505081526020019060010190612562565b505050509050612a6f565b6000805b6001600660008773ffffffffffffffffffffffffffffffffffffffff1673ffffffffffffffffffffffffffffffffffffffff1681526020019081526020016000208054905061265c9190613e7b565b8110156128a65783600660008773ffffffffffffffffffffffffffffffffffffffff1673ffffffffffffffffffffffffffffffffffffffff16815260200190815260200160002082815481106126db577f4e487b7100000000000000000000000000000000000000000000000000000000600052603260045260246000fd5b90600052602060002090600302016001015414156126f857600191505b811561289357600660008673ffffffffffffffffffffffffffffffffffffffff1673ffffffffffffffffffffffffffffffffffffffff16815260200190815260200160002060018261274a9190613d9a565b81548110612781577f4e487b7100000000000000000000000000000000000000000000000000000000600052603260045260246000fd5b9060005260206000209060030201600660008773ffffffffffffffffffffffffffffffffffffffff1673ffffffffffffffffffffffffffffffffffffffff1681526020019081526020016000208281548110612806577f4e487b7100000000000000000000000000000000000000000000000000000000600052603260045260246000fd5b90600052602060002090600302016000820160009054906101000a900473ffffffffffffffffffffffffffffffffffffffff168160000160006101000a81548173ffffffffffffffffffffffffffffffffffffffff021916908373ffffffffffffffffffffffffffffffffffffffff16021790555060018201548160010155600282015481600201559050505b808061289e90613fb7565b91505061260d565b50600660008573ffffffffffffffffffffffffffffffffffffffff1673ffffffffffffffffffffffffffffffffffffffff16815260200190815260200160002080548061291c577f4e487b7100000000000000000000000000000000000000000000000000000000600052603160045260246000fd5b6001900381819060005260206000209060030201600080820160006101000a81549073ffffffffffffffffffffffffffffffffffffffff02191690556001820160009055600282016000905550509055600660008573ffffffffffffffffffffffffffffffffffffffff1673ffffffffffffffffffffffffffffffffffffffff168152602001908152602001600020805480602002602001604051908101604052809291908181526020016000905b82821015612a6757838290600052602060002090600302016040518060600160405290816000820160009054906101000a900473ffffffffffffffffffffffffffffffffffffffff1673ffffffffffffffffffffffffffffffffffffffff1673ffffffffffffffffffffffffffffffffffffffff16815260200160018201548152602001600282015481525050815260200190600101906129cb565b505050509150505b92915050565b6000612a818484611daa565b90507fffffffffffffffffffffffffffffffffffffffffffffffffffffffffffffffff8114612afb5781811015612aed576040517f08c379a0000000000000000000000000000000000000000000000000000000008152600401612ae490613b96565b60405180910390fd5b612afa8484848403611f75565b5b50505050565b600073ffffffffffffffffffffffffffffffffffffffff168373ffffffffffffffffffffffffffffffffffffffff161415612b71576040517f08c379a0000000000000000000000000000000000000000000000000000000008152600401612b6890613c56565b60405180910390fd5b600073ffffffffffffffffffffffffffffffffffffffff168273ffffffffffffffffffffffffffffffffffffffff161415612be1576040517f08c379a0000000000000000000000000000000000000000000000000000000008152600401612bd890613ab6565b60405180910390fd5b612bec838383613293565b60008060008573ffffffffffffffffffffffffffffffffffffffff1673ffffffffffffffffffffffffffffffffffffffff16815260200190815260200160002054905081811015612c72576040517f08c379a0000000000000000000000000000000000000000000000000000000008152600401612c6990613bb6565b60405180910390fd5b8181036000808673ffffffffffffffffffffffffffffffffffffffff1673ffffffffffffffffffffffffffffffffffffffff16815260200190815260200160002081905550816000808573ffffffffffffffffffffffffffffffffffffffff1673ffffffffffffffffffffffffffffffffffffffff1681526020019081526020016000206000828254612d059190613d9a565b925050819055508273ffffffffffffffffffffffffffffffffffffffff168473ffffffffffffffffffffffffffffffffffffffff167fddf252ad1be2c89b69c2b068fc378daa952ba7f163c4a11628f55a4df523b3ef84604051612d699190613cd6565b60405180910390a3612d7c8484846132eb565b50505050565b612d8a610f19565b612dc9576040517f08c379a0000000000000000000000000000000000000000000000000000000008152600401612dc090613ad6565b60405180910390fd5b6000600560006101000a81548160ff0219169083151502179055507f5db9ee0a495bf2e6ff9c91a7834c1ba4fdd244a5e8aa4e537bd38aeae4b073aa612e0d611f6d565b604051612e1a919061395a565b60405180910390a1565b600073ffffffffffffffffffffffffffffffffffffffff168273ffffffffffffffffffffffffffffffffffffffff161415612e94576040517f08c379a0000000000000000000000000000000000000000000000000000000008152600401612e8b90613c16565b60405180910390fd5b612ea082600083613293565b60008060008473ffffffffffffffffffffffffffffffffffffffff1673ffffffffffffffffffffffffffffffffffffffff16815260200190815260200160002054905081811015612f26576040517f08c379a0000000000000000000000000000000000000000000000000000000008152600401612f1d90613af6565b60405180910390fd5b8181036000808573ffffffffffffffffffffffffffffffffffffffff1673ffffffffffffffffffffffffffffffffffffffff168152602001908152602001600020819055508160026000828254612f7d9190613e7b565b92505081905550600073ffffffffffffffffffffffffffffffffffffffff168373ffffffffffffffffffffffffffffffffffffffff167fddf252ad1be2c89b69c2b068fc378daa952ba7f163c4a11628f55a4df523b3ef84604051612fe29190613cd6565b60405180910390a3612ff6836000846132eb565b505050565b6000600560019054906101000a900473ffffffffffffffffffffffffffffffffffffffff16905081600560016101000a81548173ffffffffffffffffffffffffffffffffffffffff021916908373ffffffffffffffffffffffffffffffffffffffff1602179055508173ffffffffffffffffffffffffffffffffffffffff168173ffffffffffffffffffffffffffffffffffffffff167f8be0079c531659141344cd1fd0a4f28419497f9722a3daafe3b4186f6b6457e060405160405180910390a35050565b6130c9610f19565b15613109576040517f08c379a000000000000000000000000000000000000000000000000000000000815260040161310090613bd6565b60405180910390fd5b6001600560006101000a81548160ff0219169083151502179055507f62e78cea01bee320cd4e420270b5ea74000d11b0c9f74754ebdbfc544b05a25861314d611f6d565b60405161315a919061395a565b60405180910390a1565b6000805b600780549050811015613225578273ffffffffffffffffffffffffffffffffffffffff16600782815481106131c6577f4e487b7100000000000000000000000000000000000000000000000000000000600052603260045260246000fd5b9060005260206000200160009054906101000a900473ffffffffffffffffffffffffffffffffffffffff1673ffffffffffffffffffffffffffffffffffffffff16141561321257600191505b808061321d90613fb7565b915050613168565b508061328f576007829080600181540180825580915050600190039060005260206000200160009091909190916101000a81548173ffffffffffffffffffffffffffffffffffffffff021916908373ffffffffffffffffffffffffffffffffffffffff1602179055505b5050565b61329b610f19565b156132db576040517f08c379a00000000000000000000000000000000000000000000000000000000081526004016132d290613bd6565b60405180910390fd5b6132e6838383611f68565b505050565b505050565b6040518060600160405280600073ffffffffffffffffffffffffffffffffffffffff16815260200160008152602001600081525090565b600081359050613336816145b7565b92915050565b60008151905061334b816145ce565b92915050565b600081359050613360816145e5565b92915050565b600081359050613375816145fc565b92915050565b60008151905061338a816145fc565b92915050565b6000602082840312156133a257600080fd5b60006133b084828501613327565b91505092915050565b600080604083850312156133cc57600080fd5b60006133da85828601613327565b92505060206133eb85828601613327565b9150509250929050565b60008060006060848603121561340a57600080fd5b600061341886828701613327565b935050602061342986828701613327565b925050604061343a86828701613366565b9150509250925092565b6000806040838503121561345757600080fd5b600061346585828601613327565b925050602061347685828601613366565b9150509250929050565b60006020828403121561349257600080fd5b60006134a08482850161333c565b91505092915050565b600080604083850312156134bc57600080fd5b60006134ca85828601613351565b92505060206134db85828601613366565b9150509250929050565b6000602082840312156134f757600080fd5b600061350584828501613366565b91505092915050565b60006020828403121561352057600080fd5b600061352e8482850161337b565b91505092915050565b60006135438383613567565b60208301905092915050565b600061355b83836138eb565b60608301905092915050565b61357081613eaf565b82525050565b61357f81613eaf565b82525050565b600061359082613d2c565b61359a8185613d67565b93506135a583613d0c565b8060005b838110156135d65781516135bd8882613537565b97506135c883613d4d565b9250506001810190506135a9565b5085935050505092915050565b60006135ee82613d37565b6135f88185613d78565b935061360383613d1c565b8060005b8381101561363457815161361b888261354f565b975061362683613d5a565b925050600181019050613607565b5085935050505092915050565b61364a81613ec1565b82525050565b61365981613f16565b82525050565b600061366a82613d42565b6136748185613d89565b9350613684818560208601613f28565b61368d8161408d565b840191505092915050565b60006136a5602383613d89565b91506136b08261409e565b604082019050919050565b60006136c8601483613d89565b91506136d3826140ed565b602082019050919050565b60006136eb602283613d89565b91506136f682614116565b604082019050919050565b600061370e606483613d89565b915061371982614165565b608082019050919050565b6000613731602683613d89565b915061373c82614200565b604082019050919050565b6000613754602283613d89565b915061375f8261424f565b604082019050919050565b6000613777607083613d89565b91506137828261429e565b608082019050919050565b600061379a601d83613d89565b91506137a582614339565b602082019050919050565b60006137bd602683613d89565b91506137c882614362565b604082019050919050565b60006137e0601083613d89565b91506137eb826143b1565b602082019050919050565b6000613803602083613d89565b915061380e826143da565b602082019050919050565b6000613826602183613d89565b915061383182614403565b604082019050919050565b6000613849603f83613d89565b915061385482614452565b604082019050919050565b600061386c602583613d89565b9150613877826144a1565b604082019050919050565b600061388f602483613d89565b915061389a826144f0565b604082019050919050565b60006138b2602583613d89565b91506138bd8261453f565b604082019050919050565b60006138d5601f83613d89565b91506138e08261458e565b602082019050919050565b6060820160008201516139016000850182613567565b506020820151613914602085018261392d565b506040820151613927604085018261392d565b50505050565b61393681613eff565b82525050565b61394581613eff565b82525050565b61395481613f09565b82525050565b600060208201905061396f6000830184613576565b92915050565b600060608201905061398a6000830186613576565b6139976020830185613576565b6139a4604083018461393c565b949350505050565b60006040820190506139c16000830185613576565b6139ce6020830184613650565b9392505050565b60006040820190506139ea6000830185613576565b6139f7602083018461393c565b9392505050565b6000606082019050613a136000830186613576565b613a20602083018561393c565b613a2d604083018461393c565b949350505050565b60006020820190508181036000830152613a4f8184613585565b905092915050565b60006020820190508181036000830152613a7181846135e3565b905092915050565b6000602082019050613a8e6000830184613641565b92915050565b60006020820190508181036000830152613aae818461365f565b905092915050565b60006020820190508181036000830152613acf81613698565b9050919050565b60006020820190508181036000830152613aef816136bb565b9050919050565b60006020820190508181036000830152613b0f816136de565b9050919050565b60006020820190508181036000830152613b2f81613701565b9050919050565b60006020820190508181036000830152613b4f81613724565b9050919050565b60006020820190508181036000830152613b6f81613747565b9050919050565b60006020820190508181036000830152613b8f8161376a565b9050919050565b60006020820190508181036000830152613baf8161378d565b9050919050565b60006020820190508181036000830152613bcf816137b0565b9050919050565b60006020820190508181036000830152613bef816137d3565b9050919050565b60006020820190508181036000830152613c0f816137f6565b9050919050565b60006020820190508181036000830152613c2f81613819565b9050919050565b60006020820190508181036000830152613c4f8161383c565b9050919050565b60006020820190508181036000830152613c6f8161385f565b9050919050565b60006020820190508181036000830152613c8f81613882565b9050919050565b60006020820190508181036000830152613caf816138a5565b9050919050565b60006020820190508181036000830152613ccf816138c8565b9050919050565b6000602082019050613ceb600083018461393c565b92915050565b6000602082019050613d06600083018461394b565b92915050565b6000819050602082019050919050565b6000819050602082019050919050565b600081519050919050565b600081519050919050565b600081519050919050565b6000602082019050919050565b6000602082019050919050565b600082825260208201905092915050565b600082825260208201905092915050565b600082825260208201905092915050565b6000613da582613eff565b9150613db083613eff565b9250827fffffffffffffffffffffffffffffffffffffffffffffffffffffffffffffffff03821115613de557613de4614000565b5b828201905092915050565b6000613dfb82613eff565b9150613e0683613eff565b925082613e1657613e1561402f565b5b828204905092915050565b6000613e2c82613eff565b9150613e3783613eff565b9250817fffffffffffffffffffffffffffffffffffffffffffffffffffffffffffffffff0483118215151615613e7057613e6f614000565b5b828202905092915050565b6000613e8682613eff565b9150613e9183613eff565b925082821015613ea457613ea3614000565b5b828203905092915050565b6000613eba82613edf565b9050919050565b60008115159050919050565b6000613ed882613eaf565b9050919050565b600073ffffffffffffffffffffffffffffffffffffffff82169050919050565b6000819050919050565b600060ff82169050919050565b6000613f2182613eff565b9050919050565b60005b83811015613f46578082015181840152602081019050613f2b565b83811115613f55576000848401525b50505050565b6000613f6682613eff565b91506000821415613f7a57613f79614000565b5b600182039050919050565b60006002820490506001821680613f9d57607f821691505b60208210811415613fb157613fb061405e565b5b50919050565b6000613fc282613eff565b91507fffffffffffffffffffffffffffffffffffffffffffffffffffffffffffffffff821415613ff557613ff4614000565b5b600182019050919050565b7f4e487b7100000000000000000000000000000000000000000000000000000000600052601160045260246000fd5b7f4e487b7100000000000000000000000000000000000000000000000000000000600052601260045260246000fd5b7f4e487b7100000000000000000000000000000000000000000000000000000000600052602260045260246000fd5b6000601f19601f8301169050919050565b7f45524332303a207472616e7366657220746f20746865207a65726f206164647260008201527f6573730000000000000000000000000000000000000000000000000000000000602082015250565b7f5061757361626c653a206e6f7420706175736564000000000000000000000000600082015250565b7f45524332303a206275726e20616d6f756e7420657863656564732062616c616e60008201527f6365000000000000000000000000000000000000000000000000000000000000602082015250565b7f546f6b656e20706172616d65746572206d757374206265207468652073616d6560008201527f2061732074686520657263323020636f6e74726163742061646472657373207760208201527f68696368207761732070617373656420696e746f2074686520636f6e7374727560408201527f63746f7200000000000000000000000000000000000000000000000000000000606082015250565b7f4f776e61626c653a206e6577206f776e657220697320746865207a65726f206160008201527f6464726573730000000000000000000000000000000000000000000000000000602082015250565b7f45524332303a20617070726f766520746f20746865207a65726f20616464726560008201527f7373000000000000000000000000000000000000000000000000000000000000602082015250565b7f596f7520617265206f6e6c7920616c6c6f77656420746f207374616b6520746860008201527f65206f6666696369616c20657263323020746f6b656e2061646472657373207760208201527f68696368207761732070617373656420696e746f207468697320636f6e74726160408201527f6374277320636f6e7374727563746f7200000000000000000000000000000000606082015250565b7f45524332303a20696e73756666696369656e7420616c6c6f77616e6365000000600082015250565b7f45524332303a207472616e7366657220616d6f756e742065786365656473206260008201527f616c616e63650000000000000000000000000000000000000000000000000000602082015250565b7f5061757361626c653a2070617573656400000000000000000000000000000000600082015250565b7f4f776e61626c653a2063616c6c6572206973206e6f7420746865206f776e6572600082015250565b7f45524332303a206275726e2066726f6d20746865207a65726f2061646472657360008201527f7300000000000000000000000000000000000000000000000000000000000000602082015250565b7f4e6f7420656e6f7567682044524f5420746f6b656e7320696e20796f7572207760008201527f616c6c65742c20706c6561736520747279206c657373657220616d6f756e7400602082015250565b7f45524332303a207472616e736665722066726f6d20746865207a65726f20616460008201527f6472657373000000000000000000000000000000000000000000000000000000602082015250565b7f45524332303a20617070726f76652066726f6d20746865207a65726f2061646460008201527f7265737300000000000000000000000000000000000000000000000000000000602082015250565b7f45524332303a2064656372656173656420616c6c6f77616e63652062656c6f7760008201527f207a65726f000000000000000000000000000000000000000000000000000000602082015250565b7f45524332303a206d696e7420746f20746865207a65726f206164647265737300600082015250565b6145c081613eaf565b81146145cb57600080fd5b50565b6145d781613ec1565b81146145e257600080fd5b50565b6145ee81613ecd565b81146145f957600080fd5b50565b61460581613eff565b811461461057600080fd5b5056fea2646970667358221220e713d6b3d707942cab015415148a3454593e8bc26f4bb2a3087b956d7d9cffc664736f6c63430008040033",
  "linkReferences": {},
  "deployedLinkReferences": {}
}